{
  "_format": "hh-sol-artifact-1",
  "contractName": "Agreement",
  "sourceName": "contracts/Agreement.sol",
  "abi": [
    {
      "inputs": [
        {
          "internalType": "address",
          "name": "_customer",
          "type": "address"
        },
        {
          "internalType": "address",
          "name": "_vendor",
          "type": "address"
        },
        {
          "internalType": "address",
          "name": "_token",
          "type": "address"
        },
        {
          "internalType": "bool",
          "name": "_isNative",
          "type": "bool"
        },
        {
          "components": [
            {
              "internalType": "uint256",
              "name": "amount",
              "type": "uint256"
            },
            {
              "internalType": "string",
              "name": "description",
              "type": "string"
            },
            {
              "internalType": "bool",
              "name": "released",
              "type": "bool"
            }
          ],
          "internalType": "struct Agreement.Milestone[]",
          "name": "_milestones",
          "type": "tuple[]"
        }
      ],
      "stateMutability": "nonpayable",
      "type": "constructor"
    },
    {
      "anonymous": false,
      "inputs": [
        {
          "indexed": true,
          "internalType": "address",
          "name": "from",
          "type": "address"
        },
        {
          "indexed": false,
          "internalType": "uint256",
          "name": "amount",
          "type": "uint256"
        }
      ],
      "name": "Funded",
      "type": "event"
    },
    {
      "anonymous": false,
      "inputs": [
        {
          "indexed": true,
          "internalType": "uint256",
          "name": "index",
          "type": "uint256"
        },
        {
          "indexed": false,
          "internalType": "uint256",
          "name": "amount",
          "type": "uint256"
        },
        {
          "indexed": false,
          "internalType": "string",
          "name": "description",
          "type": "string"
        }
      ],
      "name": "MilestoneReleased",
      "type": "event"
    },
    {
      "anonymous": false,
      "inputs": [
        {
          "indexed": true,
          "internalType": "address",
          "name": "to",
          "type": "address"
        },
        {
          "indexed": false,
          "internalType": "uint256",
          "name": "amount",
          "type": "uint256"
        }
      ],
      "name": "Withdrawn",
      "type": "event"
    },
    {
      "inputs": [],
      "name": "customer",
      "outputs": [
        {
          "internalType": "address",
          "name": "",
          "type": "address"
        }
      ],
      "stateMutability": "view",
      "type": "function"
    },
    {
      "inputs": [
        {
          "internalType": "uint256",
          "name": "amount",
          "type": "uint256"
        }
      ],
      "name": "fund",
      "outputs": [],
      "stateMutability": "payable",
      "type": "function"
    },
    {
      "inputs": [],
      "name": "getMilestones",
      "outputs": [
        {
          "components": [
            {
              "internalType": "uint256",
              "name": "amount",
              "type": "uint256"
            },
            {
              "internalType": "string",
              "name": "description",
              "type": "string"
            },
            {
              "internalType": "bool",
              "name": "released",
              "type": "bool"
            }
          ],
          "internalType": "struct Agreement.Milestone[]",
          "name": "all",
          "type": "tuple[]"
        }
      ],
      "stateMutability": "view",
      "type": "function"
    },
    {
      "inputs": [],
      "name": "isNative",
      "outputs": [
        {
          "internalType": "bool",
          "name": "",
          "type": "bool"
        }
      ],
      "stateMutability": "view",
      "type": "function"
    },
    {
      "inputs": [
        {
          "internalType": "uint256",
          "name": "",
          "type": "uint256"
        }
      ],
      "name": "milestones",
      "outputs": [
        {
          "internalType": "uint256",
          "name": "amount",
          "type": "uint256"
        },
        {
          "internalType": "string",
          "name": "description",
          "type": "string"
        },
        {
          "internalType": "bool",
          "name": "released",
          "type": "bool"
        }
      ],
      "stateMutability": "view",
      "type": "function"
    },
    {
      "inputs": [
        {
          "internalType": "uint256",
          "name": "index",
          "type": "uint256"
        }
      ],
      "name": "releaseMilestone",
      "outputs": [],
      "stateMutability": "nonpayable",
      "type": "function"
    },
    {
      "inputs": [],
      "name": "token",
      "outputs": [
        {
          "internalType": "address",
          "name": "",
          "type": "address"
        }
      ],
      "stateMutability": "view",
      "type": "function"
    },
    {
      "inputs": [],
      "name": "totalFunded",
      "outputs": [
        {
          "internalType": "uint256",
          "name": "",
          "type": "uint256"
        }
      ],
      "stateMutability": "view",
      "type": "function"
    },
    {
      "inputs": [],
      "name": "totalReleased",
      "outputs": [
        {
          "internalType": "uint256",
          "name": "",
          "type": "uint256"
        }
      ],
      "stateMutability": "view",
      "type": "function"
    },
    {
      "inputs": [],
      "name": "totalWithdrawn",
      "outputs": [
        {
          "internalType": "uint256",
          "name": "",
          "type": "uint256"
        }
      ],
      "stateMutability": "view",
      "type": "function"
    },
    {
      "inputs": [],
      "name": "vendor",
      "outputs": [
        {
          "internalType": "address",
          "name": "",
          "type": "address"
        }
      ],
      "stateMutability": "view",
      "type": "function"
    },
    {
      "inputs": [],
      "name": "withdraw",
      "outputs": [],
      "stateMutability": "nonpayable",
      "type": "function"
    }
  ],
  "bytecode": "0x6101006040523480156200001257600080fd5b506040516200288e3803806200288e833981810160405281019062000038919062000745565b6001600081905550600073ffffffffffffffffffffffffffffffffffffffff168573ffffffffffffffffffffffffffffffffffffffff1614158015620000ab5750600073ffffffffffffffffffffffffffffffffffffffff168473ffffffffffffffffffffffffffffffffffffffff1614155b620000ed576040517f08c379a0000000000000000000000000000000000000000000000000000000008152600401620000e4906200084d565b60405180910390fd5b600081511162000134576040517f08c379a00000000000000000000000000000000000000000000000000000000081526004016200012b90620008bf565b60405180910390fd5b8473ffffffffffffffffffffffffffffffffffffffff1660808173ffffffffffffffffffffffffffffffffffffffff16815250508373ffffffffffffffffffffffffffffffffffffffff1660a08173ffffffffffffffffffffffffffffffffffffffff16815250508273ffffffffffffffffffffffffffffffffffffffff1660c08173ffffffffffffffffffffffffffffffffffffffff168152505081151560e08115158152505060005b815181101562000335576000828281518110620002015762000200620008e1565b5b6020026020010151600001511162000250576040517f08c379a0000000000000000000000000000000000000000000000000000000008152600401620002479062000960565b60405180910390fd5b60016040518060600160405280848481518110620002735762000272620008e1565b5b60200260200101516000015181526020018484815181106200029a5762000299620008e1565b5b6020026020010151602001518152602001600015158152509080600181540180825580915050600190039060005260206000209060030201600090919091909150600082015181600001556020820151816001019081620002fc919062000bc3565b5060408201518160020160006101000a81548160ff021916908315150217905550505080806200032c9062000cd9565b915050620001df565b50505050505062000d26565b6000604051905090565b600080fd5b600080fd5b600073ffffffffffffffffffffffffffffffffffffffff82169050919050565b6000620003828262000355565b9050919050565b620003948162000375565b8114620003a057600080fd5b50565b600081519050620003b48162000389565b92915050565b60008115159050919050565b620003d181620003ba565b8114620003dd57600080fd5b50565b600081519050620003f181620003c6565b92915050565b600080fd5b6000601f19601f8301169050919050565b7f4e487b7100000000000000000000000000000000000000000000000000000000600052604160045260246000fd5b6200044782620003fc565b810181811067ffffffffffffffff821117156200046957620004686200040d565b5b80604052505050565b60006200047e62000341565b90506200048c82826200043c565b919050565b600067ffffffffffffffff821115620004af57620004ae6200040d565b5b602082029050602081019050919050565b600080fd5b600080fd5b600080fd5b6000819050919050565b620004e481620004cf565b8114620004f057600080fd5b50565b6000815190506200050481620004d9565b92915050565b600080fd5b600067ffffffffffffffff8211156200052d576200052c6200040d565b5b6200053882620003fc565b9050602081019050919050565b60005b838110156200056557808201518184015260208101905062000548565b60008484015250505050565b60006200058862000582846200050f565b62000472565b905082815260208101848484011115620005a757620005a66200050a565b5b620005b484828562000545565b509392505050565b600082601f830112620005d457620005d3620003f7565b5b8151620005e684826020860162000571565b91505092915050565b600060608284031215620006085762000607620004c5565b5b62000614606062000472565b905060006200062684828501620004f3565b600083015250602082015167ffffffffffffffff8111156200064d576200064c620004ca565b5b6200065b84828501620005bc565b60208301525060406200067184828501620003e0565b60408301525092915050565b6000620006946200068e8462000491565b62000472565b90508083825260208201905060208402830185811115620006ba57620006b9620004c0565b5b835b818110156200070857805167ffffffffffffffff811115620006e357620006e2620003f7565b5b808601620006f28982620005ef565b85526020850194505050602081019050620006bc565b5050509392505050565b600082601f8301126200072a5762000729620003f7565b5b81516200073c8482602086016200067d565b91505092915050565b600080600080600060a086880312156200076457620007636200034b565b5b60006200077488828901620003a3565b95505060206200078788828901620003a3565b94505060406200079a88828901620003a3565b9350506060620007ad88828901620003e0565b925050608086015167ffffffffffffffff811115620007d157620007d062000350565b5b620007df8882890162000712565b9150509295509295909350565b600082825260208201905092915050565b7f5a65726f20616464720000000000000000000000000000000000000000000000600082015250565b600062000835600983620007ec565b91506200084282620007fd565b602082019050919050565b60006020820190508181036000830152620008688162000826565b9050919050565b7f4e6f206d696c6573746f6e657300000000000000000000000000000000000000600082015250565b6000620008a7600d83620007ec565b9150620008b4826200086f565b602082019050919050565b60006020820190508181036000830152620008da8162000898565b9050919050565b7f4e487b7100000000000000000000000000000000000000000000000000000000600052603260045260246000fd5b7f5a65726f20616d6f756e74000000000000000000000000000000000000000000600082015250565b600062000948600b83620007ec565b9150620009558262000910565b602082019050919050565b600060208201905081810360008301526200097b8162000939565b9050919050565b600081519050919050565b7f4e487b7100000000000000000000000000000000000000000000000000000000600052602260045260246000fd5b60006002820490506001821680620009d557607f821691505b602082108103620009eb57620009ea6200098d565b5b50919050565b60008190508160005260206000209050919050565b60006020601f8301049050919050565b600082821b905092915050565b60006008830262000a557fffffffffffffffffffffffffffffffffffffffffffffffffffffffffffffffff8262000a16565b62000a61868362000a16565b95508019841693508086168417925050509392505050565b6000819050919050565b600062000aa462000a9e62000a9884620004cf565b62000a79565b620004cf565b9050919050565b6000819050919050565b62000ac08362000a83565b62000ad862000acf8262000aab565b84845462000a23565b825550505050565b600090565b62000aef62000ae0565b62000afc81848462000ab5565b505050565b5b8181101562000b245762000b1860008262000ae5565b60018101905062000b02565b5050565b601f82111562000b735762000b3d81620009f1565b62000b488462000a06565b8101602085101562000b58578190505b62000b7062000b678562000a06565b83018262000b01565b50505b505050565b600082821c905092915050565b600062000b986000198460080262000b78565b1980831691505092915050565b600062000bb3838362000b85565b9150826002028217905092915050565b62000bce8262000982565b67ffffffffffffffff81111562000bea5762000be96200040d565b5b62000bf68254620009bc565b62000c0382828562000b28565b600060209050601f83116001811462000c3b576000841562000c26578287015190505b62000c32858262000ba5565b86555062000ca2565b601f19841662000c4b86620009f1565b60005b8281101562000c755784890151825560018201915060208501945060208101905062000c4e565b8683101562000c95578489015162000c91601f89168262000b85565b8355505b6001600288020188555050505b505050505050565b7f4e487b7100000000000000000000000000000000000000000000000000000000600052601160045260246000fd5b600062000ce682620004cf565b91507fffffffffffffffffffffffffffffffffffffffffffffffffffffffffffffffff820362000d1b5762000d1a62000caa565b5b600182019050919050565b60805160a05160c05160e051611ae862000da66000396000818161061701528181610a120152610ad201526000818161070f01528181610bea0152610e110152600081816102a1015281816105190152818161063f0152818161074b015261080d0152600081816102c5015281816102e90152610a3c0152611ae86000f3fe6080604052600436106100a75760003560e01c806373cfc6b21161006457806373cfc6b214610198578063ad044f49146101c3578063ca1d209d146101ee578063e33b7de31461020a578063e89e4ed614610235578063fc0c546a14610274576100a7565b80631385a6f2146100ac5780632804b2c0146100d7578063317debf5146101025780633ccfd60b1461012b5780634b31971314610142578063629e4ed01461016d575b600080fd5b3480156100b857600080fd5b506100c161029f565b6040516100ce9190610ef0565b60405180910390f35b3480156100e357600080fd5b506100ec6102c3565b6040516100f99190610ef0565b60405180910390f35b34801561010e57600080fd5b5061012960048036038101906101249190610f46565b6102e7565b005b34801561013757600080fd5b5061014061050f565b005b34801561014e57600080fd5b50610157610884565b6040516101649190610f82565b60405180910390f35b34801561017957600080fd5b5061018261088a565b60405161018f9190611169565b60405180910390f35b3480156101a457600080fd5b506101ad610a10565b6040516101ba919061119a565b60405180910390f35b3480156101cf57600080fd5b506101d8610a34565b6040516101e59190610f82565b60405180910390f35b61020860048036038101906102039190610f46565b610a3a565b005b34801561021657600080fd5b5061021f610d3a565b60405161022c9190610f82565b60405180910390f35b34801561024157600080fd5b5061025c60048036038101906102579190610f46565b610d40565b60405161026b939291906111ff565b60405180910390f35b34801561028057600080fd5b50610289610e0f565b6040516102969190610ef0565b60405180910390f35b7f000000000000000000000000000000000000000000000000000000000000000081565b7f000000000000000000000000000000000000000000000000000000000000000081565b7f000000000000000000000000000000000000000000000000000000000000000073ffffffffffffffffffffffffffffffffffffffff163373ffffffffffffffffffffffffffffffffffffffff1614610375576040517f08c379a000000000000000000000000000000000000000000000000000000000815260040161036c90611289565b60405180910390fd5b60018054905081106103bc576040517f08c379a00000000000000000000000000000000000000000000000000000000081526004016103b3906112f5565b60405180910390fd5b6000600182815481106103d2576103d1611315565b5b906000526020600020906003020190508060020160009054906101000a900460ff1615610434576040517f08c379a000000000000000000000000000000000000000000000000000000000815260040161042b90611390565b60405180910390fd5b600060035460025461044691906113df565b9050816000015481101561048f576040517f08c379a00000000000000000000000000000000000000000000000000000000081526004016104869061145f565b60405180910390fd5b60018260020160006101000a81548160ff0219169083151502179055508160000154600360008282546104c2919061147f565b92505081905550827fd22f69c6d4024c0a563aa2532097feffb1ad6071959a74d1621dca2c72f680d88360000154846001016040516105029291906115ac565b60405180910390a2505050565b610517610e33565b7f000000000000000000000000000000000000000000000000000000000000000073ffffffffffffffffffffffffffffffffffffffff163373ffffffffffffffffffffffffffffffffffffffff16146105a5576040517f08c379a000000000000000000000000000000000000000000000000000000000815260040161059c90611628565b60405180910390fd5b60006004546003546105b791906113df565b9050600081116105fc576040517f08c379a00000000000000000000000000000000000000000000000000000000081526004016105f390611694565b60405180910390fd5b806004600082825461060e919061147f565b925050819055507f00000000000000000000000000000000000000000000000000000000000000001561070d5760007f000000000000000000000000000000000000000000000000000000000000000073ffffffffffffffffffffffffffffffffffffffff1682604051610681906116e5565b60006040518083038185875af1925050503d80600081146106be576040519150601f19603f3d011682016040523d82523d6000602084013e6106c3565b606091505b5050905080610707576040517f08c379a00000000000000000000000000000000000000000000000000000000081526004016106fe90611746565b60405180910390fd5b5061080b565b7f000000000000000000000000000000000000000000000000000000000000000073ffffffffffffffffffffffffffffffffffffffff1663a9059cbb7f0000000000000000000000000000000000000000000000000000000000000000836040518363ffffffff1660e01b8152600401610788929190611766565b6020604051808303816000875af11580156107a7573d6000803e3d6000fd5b505050506040513d601f19601f820116820180604052508101906107cb91906117bb565b61080a576040517f08c379a000000000000000000000000000000000000000000000000000000000815260040161080190611834565b60405180910390fd5b5b7f000000000000000000000000000000000000000000000000000000000000000073ffffffffffffffffffffffffffffffffffffffff167f7084f5476618d8e60b11ef0d7d3f06914655adb8793e28ff7f018d4c76d505d5826040516108719190610f82565b60405180910390a250610882610e82565b565b60045481565b606060018054905067ffffffffffffffff8111156108ab576108aa611854565b5b6040519080825280602002602001820160405280156108e457816020015b6108d1610e8c565b8152602001906001900390816108c95790505b50905060005b600180549050811015610a0c576001818154811061090b5761090a611315565b5b90600052602060002090600302016040518060600160405290816000820154815260200160018201805461093e906114e2565b80601f016020809104026020016040519081016040528092919081815260200182805461096a906114e2565b80156109b75780601f1061098c576101008083540402835291602001916109b7565b820191906000526020600020905b81548152906001019060200180831161099a57829003601f168201915b505050505081526020016002820160009054906101000a900460ff1615151515815250508282815181106109ee576109ed611315565b5b60200260200101819052508080610a0490611883565b9150506108ea565b5090565b7f000000000000000000000000000000000000000000000000000000000000000081565b60025481565b7f000000000000000000000000000000000000000000000000000000000000000073ffffffffffffffffffffffffffffffffffffffff163373ffffffffffffffffffffffffffffffffffffffff1614610ac8576040517f08c379a0000000000000000000000000000000000000000000000000000000008152600401610abf90611289565b60405180910390fd5b610ad0610e33565b7f000000000000000000000000000000000000000000000000000000000000000015610ba55760003411610b39576040517f08c379a0000000000000000000000000000000000000000000000000000000008152600401610b3090611917565b60405180910390fd5b3460026000828254610b4b919061147f565b925050819055503373ffffffffffffffffffffffffffffffffffffffff167f5af8184bef8e4b45eb9f6ed7734d04da38ced226495548f46e0c8ff8d7d9a52434604051610b989190610f82565b60405180910390a2610d2f565b60008111610be8576040517f08c379a0000000000000000000000000000000000000000000000000000000008152600401610bdf90611983565b60405180910390fd5b7f000000000000000000000000000000000000000000000000000000000000000073ffffffffffffffffffffffffffffffffffffffff166323b872dd3330846040518463ffffffff1660e01b8152600401610c45939291906119a3565b6020604051808303816000875af1158015610c64573d6000803e3d6000fd5b505050506040513d601f19601f82011682018060405250810190610c8891906117bb565b610cc7576040517f08c379a0000000000000000000000000000000000000000000000000000000008152600401610cbe90611a26565b60405180910390fd5b8060026000828254610cd9919061147f565b925050819055503373ffffffffffffffffffffffffffffffffffffffff167f5af8184bef8e4b45eb9f6ed7734d04da38ced226495548f46e0c8ff8d7d9a52482604051610d269190610f82565b60405180910390a25b610d37610e82565b50565b60035481565b60018181548110610d5057600080fd5b9060005260206000209060030201600091509050806000015490806001018054610d79906114e2565b80601f0160208091040260200160405190810160405280929190818152602001828054610da5906114e2565b8015610df25780601f10610dc757610100808354040283529160200191610df2565b820191906000526020600020905b815481529060010190602001808311610dd557829003601f168201915b5050505050908060020160009054906101000a900460ff16905083565b7f000000000000000000000000000000000000000000000000000000000000000081565b600260005403610e78576040517f08c379a0000000000000000000000000000000000000000000000000000000008152600401610e6f90611a92565b60405180910390fd5b6002600081905550565b6001600081905550565b604051806060016040528060008152602001606081526020016000151581525090565b600073ffffffffffffffffffffffffffffffffffffffff82169050919050565b6000610eda82610eaf565b9050919050565b610eea81610ecf565b82525050565b6000602082019050610f056000830184610ee1565b92915050565b600080fd5b6000819050919050565b610f2381610f10565b8114610f2e57600080fd5b50565b600081359050610f4081610f1a565b92915050565b600060208284031215610f5c57610f5b610f0b565b5b6000610f6a84828501610f31565b91505092915050565b610f7c81610f10565b82525050565b6000602082019050610f976000830184610f73565b92915050565b600081519050919050565b600082825260208201905092915050565b6000819050602082019050919050565b610fd281610f10565b82525050565b600081519050919050565b600082825260208201905092915050565b60005b83811015611012578082015181840152602081019050610ff7565b60008484015250505050565b6000601f19601f8301169050919050565b600061103a82610fd8565b6110448185610fe3565b9350611054818560208601610ff4565b61105d8161101e565b840191505092915050565b60008115159050919050565b61107d81611068565b82525050565b600060608301600083015161109b6000860182610fc9565b50602083015184820360208601526110b3828261102f565b91505060408301516110c86040860182611074565b508091505092915050565b60006110df8383611083565b905092915050565b6000602082019050919050565b60006110ff82610f9d565b6111098185610fa8565b93508360208202850161111b85610fb9565b8060005b85811015611157578484038952815161113885826110d3565b9450611143836110e7565b925060208a0199505060018101905061111f565b50829750879550505050505092915050565b6000602082019050818103600083015261118381846110f4565b905092915050565b61119481611068565b82525050565b60006020820190506111af600083018461118b565b92915050565b600082825260208201905092915050565b60006111d182610fd8565b6111db81856111b5565b93506111eb818560208601610ff4565b6111f48161101e565b840191505092915050565b60006060820190506112146000830186610f73565b818103602083015261122681856111c6565b9050611235604083018461118b565b949350505050565b7f4f6e6c7920637573746f6d657200000000000000000000000000000000000000600082015250565b6000611273600d836111b5565b915061127e8261123d565b602082019050919050565b600060208201905081810360008301526112a281611266565b9050919050565b7f42616420696e6465780000000000000000000000000000000000000000000000600082015250565b60006112df6009836111b5565b91506112ea826112a9565b602082019050919050565b6000602082019050818103600083015261130e816112d2565b9050919050565b7f4e487b7100000000000000000000000000000000000000000000000000000000600052603260045260246000fd5b7f416c72656164792072656c656173656400000000000000000000000000000000600082015250565b600061137a6010836111b5565b915061138582611344565b602082019050919050565b600060208201905081810360008301526113a98161136d565b9050919050565b7f4e487b7100000000000000000000000000000000000000000000000000000000600052601160045260246000fd5b60006113ea82610f10565b91506113f583610f10565b925082820390508181111561140d5761140c6113b0565b5b92915050565b7f496e73756666696369656e742066756e64656400000000000000000000000000600082015250565b60006114496013836111b5565b915061145482611413565b602082019050919050565b600060208201905081810360008301526114788161143c565b9050919050565b600061148a82610f10565b915061149583610f10565b92508282019050808211156114ad576114ac6113b0565b5b92915050565b7f4e487b7100000000000000000000000000000000000000000000000000000000600052602260045260246000fd5b600060028204905060018216806114fa57607f821691505b60208210810361150d5761150c6114b3565b5b50919050565b60008190508160005260206000209050919050565b60008154611535816114e2565b61153f81866111b5565b9450600182166000811461155a5760018114611570576115a3565b60ff1983168652811515602002860193506115a3565b61157985611513565b60005b8381101561159b5781548189015260018201915060208101905061157c565b808801955050505b50505092915050565b60006040820190506115c16000830185610f73565b81810360208301526115d38184611528565b90509392505050565b7f4f6e6c792076656e646f72000000000000000000000000000000000000000000600082015250565b6000611612600b836111b5565b915061161d826115dc565b602082019050919050565b6000602082019050818103600083015261164181611605565b9050919050565b7f4e6f7468696e6720746f20776974686472617700000000000000000000000000600082015250565b600061167e6013836111b5565b915061168982611648565b602082019050919050565b600060208201905081810360008301526116ad81611671565b9050919050565b600081905092915050565b50565b60006116cf6000836116b4565b91506116da826116bf565b600082019050919050565b60006116f0826116c2565b9150819050919050565b7f455448207472616e73666572206661696c656400000000000000000000000000600082015250565b60006117306013836111b5565b915061173b826116fa565b602082019050919050565b6000602082019050818103600083015261175f81611723565b9050919050565b600060408201905061177b6000830185610ee1565b6117886020830184610f73565b9392505050565b61179881611068565b81146117a357600080fd5b50565b6000815190506117b58161178f565b92915050565b6000602082840312156117d1576117d0610f0b565b5b60006117df848285016117a6565b91505092915050565b7f4552433230207472616e73666572206661696c65640000000000000000000000600082015250565b600061181e6015836111b5565b9150611829826117e8565b602082019050919050565b6000602082019050818103600083015261184d81611811565b9050919050565b7f4e487b7100000000000000000000000000000000000000000000000000000000600052604160045260246000fd5b600061188e82610f10565b91507fffffffffffffffffffffffffffffffffffffffffffffffffffffffffffffffff82036118c0576118bf6113b0565b5b600182019050919050565b7f4e6f204554482073656e74000000000000000000000000000000000000000000600082015250565b6000611901600b836111b5565b915061190c826118cb565b602082019050919050565b60006020820190508181036000830152611930816118f4565b9050919050565b7f5a65726f20616d6f756e74000000000000000000000000000000000000000000600082015250565b600061196d600b836111b5565b915061197882611937565b602082019050919050565b6000602082019050818103600083015261199c81611960565b9050919050565b60006060820190506119b86000830186610ee1565b6119c56020830185610ee1565b6119d26040830184610f73565b949350505050565b7f7472616e7366657246726f6d206661696c656400000000000000000000000000600082015250565b6000611a106013836111b5565b9150611a1b826119da565b602082019050919050565b60006020820190508181036000830152611a3f81611a03565b9050919050565b7f5265656e7472616e637947756172643a207265656e7472616e742063616c6c00600082015250565b6000611a7c601f836111b5565b9150611a8782611a46565b602082019050919050565b60006020820190508181036000830152611aab81611a6f565b905091905056fea264697066735822122011ffd9895484455c679737debd6906324af8ac6054f62f1666035d61b2806e4a64736f6c63430008140033",
  "linkReferences": {},
  "deployedLinkReferences": {}
}